:1000000025C1000053C1000051C100004FC10000D4
:100010004DC100004BC1000049C1000047C10000B4
:1000200045C1000043C1000041C100003FC10000C4
:100030003DC100003BC1000039C1000037C10000D4
:1000400035C1000033C1000031C100002FC10000E4
:100050002DC100002BC1000029C10000C5C4000053
:1000600025C100008BC4000060C400001FC1000057
:100070001DC100001BC1000019C1000017C1000014
:1000800015C1000013C1000011C100000FC1000024
:100090000DC100000BC1000009C1000007C1000034
:1000A00005C1000003C1000001C10000FFC0000045
:1000B000FDC00000FBC00000F9C00000F7C0000058
:1000C000F5C00000F3C00000F1C00000EFC0000068
:1000D000EDC00000EBC00000E9C00000E7C0000078
:1000E000E5C00000DF02E202D102D502D902190305
:1000F000E602EA02F002F402F802FE02020306033C
:1001000019030C03100314034E414E494E49545930
:10011000494E46CDCCCC3D0AD7233C17B7D13877D2
:10012000CC2B329595E6241FB14F0A0000204100E8
:1001300000C84200401C4620BCBE4CCA1B0E5AAE32
:10014000C59D7400000A0B02090C0D0E080703047C
:10015000010000000000000000000000000000009E
:10016000000000000000000000000000000000127D
:10017000111000000000000000000000000000005E
:100180000000000000000000000000220025002800
:10019000002B002E00310034000201000005010890
:1001A000010B0100002100240027002A002D00304F
:1001B00000330001010000040107010A01050505E3
:1001C00005070508080808020202020A0A080804CE
:1001D00004040401010101010101010303030303FC
:1001E000030303040707070C0C0C0C0C0C0C0C028B
:1001F00002020206060606060606060B0B0B0B0B92
:100200000B0B0B010210202008081020401020408A
:1002100080020102010804020101020408102040CA
:1002200080804020100804020180040201804020E8
:100230001008040201080402010102040810204011
:10024000800102040810204080007E0611241FBE99
:10025000CFEFD1E2DEBFCDBF00E00CBF22E0AEE2C7
:10026000B2E001C01D92A63DB207E1F712E0A0E0A6
:10027000B2E0ECECF4E100E00BBF02C007900D929D
:10028000AE32B107D9F711E0C6E2D1E000E006C016
:1002900021970109802FFE010E94580AC532D1071B
:1002A00080E00807A9F7EAD30C94640AA9CE90E08D
:1002B000FC01ED5FFD4F2491FC01E354FE4F84915E
:1002C000882399F090E0880F991FFC01ED55FE4FAF
:1002D000A591B491FC01E757FE4F859194918FB79A
:1002E000F894EC91E22BEC938FBF0895CF92DF92BC
:1002F000EF92FF920F931F93CF93DF936C017A01DC
:100300008B01C0E0D0E0CE15DF0581F0D8016D9102
:100310008D01D601ED91FC910190F081E02DC60197
:100320001995892B11F02196EECF7E01C701DF913F
:10033000CF911F910F91FF90EF90DF90CF90089594
:10034000089580E090E00895FC01538D448D252FA1
:1003500030E0842F90E0821B930B541710F0CF965F
:10036000089501970895FC01918D828D981761F091
:10037000828DDF01A80FB11D5D968C91928D9F5FDC
:100380009F73928F90E008958FEF9FEF0895FC0187
:10039000918D828D981731F0828DE80FF11D858D3A
:1003A00090E008958FEF9FEF0895FC01918D228DCD
:1003B000892F90E0805C9F4F821B91098F73992752
:1003C000089587E392E0F1DF21E0892B09F420E032
:1003D000822F0895FC01848DDF01A80FB11DA35A5F
:1003E000BF4F2C91848D90E001968F739927848F55
:1003F000A689B7892C93A089B1898C918370806478
:100400008C93938D848D981306C00288F389E02D18
:1004100080818F7D80830895EF92FF920F931F93C9
:10042000CF93DF93EC0181E0888F9B8D8C8D9813A7
:1004300005C0E889F989808185FD25C0F62E0B8DE0
:1004400010E00F5F1F4F0F731127E02E8C8DE81205
:100450000BC00FB607FCFACFE889F989808185FFC8
:10046000F5CFCE01B7DFF2CF8B8DFE01E80FF11D86
:10047000E35AFF4FF0829FB7F8940B8FEA89FB890C
:10048000808180620AC09FB7F894EE89FF896083FB
:10049000E889F98980818370806480839FBF81E0CF
:1004A00090E0DF91CF911F910F91FF90EF90089511
:1004B000CF93DF93EC01888D8823C1F0EA89FB8913
:1004C000808185FD05C0A889B9898C9186FD0EC003
:1004D0000FB607FCF5CF808185FFF2CFA889B989D7
:1004E0008C9185FFEDCFCE0175DFE8CFDF91CF9105
:1004F000089580E090E0892B19F063DF811125C019
:1005000080E090E0892B41F080E090E0892B21F0A1
:100510000E94000081111CC080E090E0892B41F016
:1005200080E090E0892B21F00E940000811113C02F
:1005300080E090E0892BA1F080E090E0892B81F0B1
:100540000E94000081110AC008950E940000D8CFC7
:100550000E940000E1CF0E940000EACF0C9400004E
:100560000895362F90E0FC01ED5BFE4F4491FC01B5
:10057000ED5FFD4F2491FC01E354FE4F94919923CC
:1005800009F46BC0442309F454C050E0FA013197D8
:10059000E231F10508F04DC08827EE58FF4F8F4F2C
:1005A00087C7809180008F7707C0809180008F7D02
:1005B00003C080918000877F809380003AC084B51B
:1005C0008F7702C084B58F7D84BD33C08091B00029
:1005D0008F7703C08091B0008F7D8093B00029C0D9
:1005E000809190008F7707C0809190008F7D03C02D
:1005F00080919000877F809390001BC08091A00025
:100600008F7707C08091A0008F7D03C08091A000EC
:10061000877F8093A0000DC0809120018F7707C055
:10062000809120018F7D03C080912001877F80937E
:100630002001E92FF0E0EE0FFF1FE757FE4FA591D5
:10064000B4919FB7F894311104C08C912095282360
:1006500002C0EC912E2B2C939FBF08953FB7F894C6
:100660008091330290913402A0913502B09136020C
:1006700026B5A89B05C02F3F19F00196A11DB11DFD
:100680003FBFBA2FA92F982F8827820F911DA11D38
:10069000B11DBC01CD0142E0660F771F881F991F75
:1006A0004A95D1F708958F929F92AF92BF92CF92C1
:1006B000DF92EF92FF92D2DF4B015C018AE0C82EFD
:1006C000D12CE12CF12CCADFDC01CB01881999096E
:1006D000AA09BB09883E9340A105B105A0F321E01A
:1006E000C21AD108E108F10888EE880E83E0981E4E
:1006F000A11CB11CC114D104E104F10421F7FF9045
:10070000EF90DF90CF90BF90AF909F908F90089523
:10071000CF92DF92EF92FF92CF93DF936B017C0138
:10072000411102C061E001C060E088E11ADF2AE007
:1007300037ED43EA5BE3C701B6011DD66B017C01CF
:10074000C0E0D0E0BE010D2E000C880B990B7FD4C9
:100750009B01AC01C701B601A7D6181644F461E0AD
:1007600086E1FFDE60E086E1FCDE2196EBCFDF91E3
:10077000CF91FF90EF90DF90CF900895CF92DF92CE
:10078000EF92FF92CF93DF936B017C01411102C086
:1007900061E001C060E089E1E4DE2AE037ED43EA90
:1007A0005BE3C701B601E7D56B017C01C0E0D0E097
:1007B000BE010D2E000C880B990B49D49B01AC0196
:1007C000C701B60171D6181644F461E087E1C9DEAD
:1007D00060E087E1C6DE2196EBCFDF91CF91FF90FD
:1007E000EF90DF90CF9008952F923F924F925F92BB
:1007F0006F927F928F929F92AF92BF92CF92DF9231
:10080000EF92FF920F931F93CF93DF934B015C0105
:1008100069017A0160E070E0CB0119D4A50194016F
:1008200045D511D68B01A701960160E070E0CB01A0
:100830003DD509D6212E221C2224221C372E331C02
:100840003324331CE80117FF03C0D195C195D109AA
:100850008B0177FF03C01195019511090C171D0736
:1008600044F57E01F594E794C12CD12C4E010D2E58
:10087000000CAA08BB082801012E000C66087708A6
:10088000C501B401E4D3422D79DFE00EF11EEC1670
:10089000FD063CF0EC1AFD0AC301B201D8D3432D8A
:1008A00037DF01DF8FEFC81AD80ACC16DD0644F314
:1008B00028C07801F594E794C12CD12C4801012E71
:1008C000000CAA08BB082E010D2E000C6608770844
:1008D000C016D106B1F0C501B401B9D3432D18DF5C
:1008E000EC0EFD1EE016F1063CF0E01AF10AC30121
:1008F000B201ADD3422D42DFD6DE8FEFC81AD80A3F
:10090000E7CFDF91CF911F910F91FF90EF90DF9094
:10091000CF90BF90AF909F908F907F906F905F909F
:100920004F903F902F900895CBD51F920F920FB606
:100930000F9211240BB60F922F933F934F935F9317
:100940006F937F938F939F93AF93BF93EF93FF9397
:1009500087E392E03FDDFF91EF91BF91AF919F91CF
:100960008F917F916F915F914F913F912F910F9058
:100970000BBE0F900FBE0F901F9018951F920F92F5
:100980000FB60F9211240BB60F922F938F939F9354
:10099000EF93FF93E0914702F09148028081E0914C
:1009A0004D02F0914E0282FD12C090818091500262
:1009B0008F5F8F7320915102821751F0E0915002A6
:1009C000F0E0E95CFD4F958F8093500201C080817B
:1009D000FF91EF919F918F912F910F900BBE0F90F0
:1009E0000FBE0F901F9018951F920F920FB60F9287
:1009F00011242F933F938F939F93AF93BF93809135
:100A00002F0290913002A0913102B09132023091C8
:100A10002E0223E0230F2D3720F40196A11DB11DD6
:100A200005C026E8230F0296A11DB11D20932E02BA
:100A300080932F0290933002A0933102B093320240
:100A40008091330290913402A0913502B091360228
:100A50000196A11DB11D8093330290933402A0939F
:100A60003502B0933602BF91AF919F918F913F9124
:100A70002F910F900FBE0F901F901895CF93DF937B
:100A8000CDB7DEB7C054D1090FB6F894DEBF0FBEA4
:100A9000CDBF789484B5826084BD84B5816084BD07
:100AA00085B5826085BD85B5816085BD80916E000C
:100AB000816080936E00109281008091810082603D
:100AC000809381008091810081608093810080917A
:100AD00080008160809380008091B1008460809369
:100AE000B1008091B00081608093B000809191004E
:100AF0008260809391008091910081608093910049
:100B0000809190008160809390008091A10082602C
:100B10008093A1008091A10081608093A1008091C9
:100B2000A00081608093A000809121018260809369
:100B30002101809121018160809321018091200118
:100B400081608093200180917A00846080937A0094
:100B500080917A00826080937A0080917A0081602F
:100B600080937A0080917A00806880937A00109256
:100B7000C100E0914702F091480282E08083E09159
:100B80004302F09144021082E0914502F091460246
:100B90008FEC808310924F02E0914B02F0914C0257
:100BA00086E08083E0914902F0914A028081806171
:100BB0008083E0914902F0914A02808188608083BD
:100BC000E0914902F0914A02808180688083E0913F
:100BD0004902F0914A0280818F7D808387E167DB43
:100BE00089E165DB86E163DB88E161DB87E392E035
:100BF000DCDB892B09F480C087E392E0B4DB182F9B
:100C0000682F87E392E008DC1A3009F075C0809104
:100C10000A00873409F062C080910C00882331F00B
:100C2000813009F069C002E010E028C002E010E065
:100C3000F8018285883519F00F5F1F4FF9CF898140
:100C4000F8019285903229F00F5F1F4FF8018285DD
:100C5000F7CF8983CE0101967ED06B017C01F8012C
:100C60008285893519F00F5F1F4FF9CF8981F8010F
:100C70003A969191903241F18081FBCFF8018285C3
:100C8000883519F00F5F1F4FF9CF8981F8019285E0
:100C9000903229F00F5F1F4FF8018285F7CF8983CB
:100CA000CE01019658D06B017C01F801828589350F
:100CB00019F00F5F1F4FF9CF8981F8013A96919192
:100CC000903211F08081FBCF8983CE01019643D011
:100CD0009B01AC01C701B60187DD0EC047E150E0C2
:100CE00062E172E087E392E001DB42E050E06AE219
:100CF00072E087E392E0FADAFCDB78CFE7E3F2E038
:100D00001382128288EE93E0A0E0B0E084839583A2
:100D1000A683B78384E092E09183808385EC90E0A2
:100D20009587848784EC90E09787868780EC90E0B5
:100D3000918B808B81EC90E0938B828B82EC90E0A6
:100D4000958B848B86EC90E0978B868B118E128E20
:100D5000138E148E08956627772700C08F929F9276
:100D6000AF92BF92CF92DF92EF92FF920F931F93B9
:100D7000CF93DF93EC016B016115710519F0FB0155
:100D8000918380837E01FFEFEF1AFF0A0881802F95
:100D900090E037D1892B11F0E701F4CF0D3239F40F
:100DA0007E0182E0E80EF11C098111E008C00B32DF
:100DB00029F47E0192E0E90EF11C098110E0E701BF
:100DC000219743E050E060E171E0CE0122D1892B10
:100DD000B9F4239645E050E06BE071E0CE0119D103
:100DE000892B09F42596C114D10419F0F601D18399
:100DF000C0831111F0C060E070E080E89FE7F4C0AC
:100E000043E050E068E071E0CE0103D1892B59F452
:100E1000C114D10409F4E4C0F2E0EF0EF11CF601B4
:100E2000F182E082DDC020E030E0A901C0E0D0E046
:100E3000F70160EDA62EA00E89E08A1528F1912F0A
:100E40009260B92E812F887012FF04C0811123C0D7
:100E5000219621C081112197A5E0B0E00ED2DC01DE
:100E6000CB01880F991FAA1FBB1F9C01AD012A0D42
:100E7000311D411D511D283989E93807480789E18D
:100E8000580748F0166006C09EEFA9120AC013FD6D
:100E900040C01860B12E8FEFE81AF80A00811B2DB0
:100EA000C7CF802F8F7D8534A1F580818D3211F4DD
:100EB000106106C08B3221F0319661E070E004C011
:100EC0008181329662E070E080538A3018F0E61B30
:100ED000F70B1FC060E070E060389CE079075CF4BD
:100EE000DB01AA0FBB1FAA0FBB1F6A0F7B1F660F78
:100EF000771F680F711D3196DF0111978C91805318
:100F00008A3050F314FF03C0719561957109C60FC3
:100F1000D71F11FF08C0C114D10429F0CF010197D8
:100F2000F60191838083CA01B9018FD0212F2370EC
:100F3000233019F04B015C0106C04B015C01B7FA8C
:100F4000B094B7F8B09420E030E0A901C501B40135
:100F500078D0882309F43CC0D7FF06C0D195C1954D
:100F6000D10907E211E002C00FE311E06801F8E1E6
:100F7000CF1AD10890E2E92EF12CCE15DF056CF0E6
:100F8000F8012591359145915491C501B401BED028
:100F90004B015C01CE19DF09F0CF04501109F59423
:100FA000E7940C151D0549F78A2D880F8B2D881F96
:100FB0008F3F41F020E030E0A901C501B40141D0EC
:100FC000811106C082E290E09093D5028093D40212
:100FD000C501B40109C060E070E080E89FEF04C083
:100FE00060E070E080EC9FE7DF91CF911F910F915F
:100FF000FF90EF90DF90CF90BF90AF909F908F9039
:1010000008959111E6C0803219F089508550D0F7CB
:101010000895FB01DC014150504088F08D918134EE
:101020001CF08B350CF4805E659161341CF06B35DF
:101030000CF4605E861B611171F3990B0895881B97
:10104000FCCF40D008F481E00895E89409C097FBF4
:101050003EF490958095709561957F4F8F4F9F4F8F
:101060009923A9F0F92F96E9BB279395F6958795D3
:1010700077956795B795F111F8CFFAF4BB0F11F496
:1010800060FF1BC06F5F7F4F8F4F9F4F16C088233D
:1010900011F096E911C0772321F09EE8872F762F73
:1010A00005C0662371F096E8862F70E060E02AF0B4
:1010B0009A95660F771F881FDAF7880F96958795A0
:1010C00097F90895990F0008550FAA0BE0E8FEEF75
:1010D00016161706E807F907C0F012161306E407FC
:1010E000F50798F0621B730B840B950B39F40A26F5
:1010F00061F0232B242B252B21F408950A2609F4D3
:10110000A140A6958FEF811D811D08950BD07BC056
:101110006CD028F071D018F0952309F05DC062C042
:101120001124A5C081D0A0F3959FD1F3950F50E075
:10113000551F629FF001729FBB27F00DB11D639F89
:10114000AA27F00DB11DAA1F649F6627B00DA11D2F
:10115000661F829F2227B00DA11D621F739FB00DD5
:10116000A11D621F839FA00D611D221F749F332745
:10117000A00D611D231F849F600D211D822F762FDE
:101180006A2F11249F5750408AF0E1F088234AF0DB
:10119000EE0FFF1FBB1F661F771F881F9150504027
:1011A000A9F79E3F510570F017C061C05F3FECF397
:1011B000983EDCF3869577956795B795F795E79513
:1011C0009F5FC1F7FE2B880F911D9695879597F924
:1011D000089599278827089597F99F6780E870E018
:1011E00060E008959FEF80EC089500240A9416169D
:1011F000170618060906089500240A941216130605
:10120000140605060895092E0394000C11F4882392
:1012100052F0BB0F40F4BF2B11F460FF04C06F5FAE
:101220007F4F8F4F9F4F089557FD9058440F551F84
:1012300059F05F3F71F04795880F97FB991F61F058
:101240009F3F79F087950895121613061406551FCF
:10125000F2CF4695F1DF08C0161617061806991F3B
:10126000F1CF86957105610508940895E894BB2730
:1012700066277727CB0197F9089509D0A59F900D90
:10128000B49F900DA49F800D911D11240895A29FDD
:10129000B001B39FC001A39F700D811D1124911D4A
:1012A000B29F700D811D1124911D08955058BB27C8
:1012B000AA270ED0A8CF99DF30F09EDF20F031F4BE
:1012C0009F3F11F41EF48ECF0EF4E095E7FB84CF20
:1012D000E92FAADF80F3BA1762077307840795071F
:1012E00018F071F49EF5C2CF0EF4E0950B2EBA2FD4
:1012F000A02D0B01B90190010C01CA01A00111241C
:10130000FF27591B99F0593F50F4503E68F11A16C7
:10131000F040A22F232F342F4427585FF3CF469558
:1013200037952795A795F0405395C9F77EF41F167A
:10133000BA0B620B730B840BBAF09150A1F0FF0F44
:10134000BB1F661F771F881FC2F70EC0BA0F621F30
:10135000731F841F48F4879577956795B795F79520
:101360009E3F08F0B3CF9395880F08F09927EE0FB2
:101370009795879508950CD046CF3EDF40F035DF36
:1013800030F021F45F3F19F027CF511170CF2ACFF1
:101390004BDF98F39923C9F35523B1F3951B550BF4
:1013A000BB27AA2762177307840738F09F5F5F4F38
:1013B000220F331F441FAA1FA9F333D00E2E3AF079
:1013C000E0E830D091505040E695001CCAF729D093
:1013D000FE2F27D0660F771F881FBB1F26173707E2
:1013E0004807AB07B0E809F0BB0B802DBF01FF2712
:1013F00093585F4F2AF09E3F510568F0EDCE37CFEE
:101400005F3FECF3983EDCF3869577956795B7954B
:10141000F7959F5FC9F7880F911D9695879597F966
:101420000895E1E0660F771F881FBB1F62177307DF
:101430008407BA0720F0621B730B840BBA0BEE1FF4
:1014400088F7E095089504D06894B11110CF0895FD
:10145000F3DE88F09F5790F0B92F9927B751A0F08D
:10146000D1F0660F771F881F991F1AF0BA95C9F738
:1014700012C0B13081F0FADEB1E00895F7CE672FE7
:10148000782F8827B85F39F0B93FCCF386957795E8
:101490006795B395D9F73EF49095809570956195D1
:1014A0007F4F8F4F9F4F08950DDE08F48FEF089503
:1014B000EE0FFF1F881F8BBF0790F691E02D199448
:0C14C00081E090E0F89400C0F894FFCFA9
:1014CC00000000000C027601A4015802D501B30102
:1014DC00C701436F6D6D616E64206E6F7420737500
:0E14EC0070706F727465642021000D0A00009C
:00000001FF
