:1000000025C1000053C1000051C100004FC10000D4
:100010004DC100004BC1000049C1000047C10000B4
:1000200045C1000043C1000041C100003FC10000C4
:100030003DC100003BC1000039C1000037C10000D4
:1000400035C100005FC6000031C100002FC10000B3
:100050002DC100002BC1000029C1000082C5000095
:1000600025C1000048C500001DC500001FC10000DB
:100070001DC100001BC1000019C1000017C1000014
:1000800014C6000013C1000011C100000FC1000020
:100090000DC100000BC1000009C1000007C1000034
:1000A00005C1000003C10000D3C50000FFC000006F
:1000B000FDC00000FBC00000F9C000009CC50000AE
:1000C000F5C00000F3C00000F1C00000EFC0000068
:1000D000EDC00000EBC00000E9C00000E7C0000078
:1000E000E5C00000DA02DD02CC02D002D402140323
:1000F000E102E502EB02EF02F302F902FD02010365
:10010000140307030B030F034E414E494E49545944
:10011000494E46CDCCCC3D0AD7233C17B7D13877D2
:10012000CC2B329595E6241FB14F0A0000204100E8
:1001300000C84200401C4620BCBE4CCA1B0E5AAE32
:10014000C59D7400000A0B02090C0D0E080703047C
:10015000010000000000000000000000000000009E
:10016000000000000000000000000000000000127D
:10017000111000000000000000000000000000005E
:100180000000000000000000000000220025002800
:10019000002B002E00310034000201000005010890
:1001A000010B0100002100240027002A002D00304F
:1001B00000330001010000040107010A01050505E3
:1001C00005070508080808020202020A0A080804CE
:1001D00004040401010101010101010303030303FC
:1001E000030303040707070C0C0C0C0C0C0C0C028B
:1001F00002020206060606060606060B0B0B0B0B92
:100200000B0B0B010210202008081020401020408A
:1002100080020102010804020101020408102040CA
:1002200080804020100804020180040201804020E8
:100230001008040201080402010102040810204011
:1002400080010204081020408000AF0611241FBE68
:10025000CFEFD1E2DEBFCDBF00E00CBF12E0A0E0E7
:10026000B2E0E8E7F9E100E00BBF02C007900D92B1
:10027000AC33B107D9F723E0ACE3B2E001C01D9283
:10028000AC3BB207E1F711E0C6E2D1E000E006C006
:1002900021970109802FFE010E94AE0CC532D107C3
:1002A00080E00807A9F7B9D50C94BA0CA9CE90E064
:1002B000FC01ED5FFD4F2491FC01E354FE4F84915E
:1002C000882399F090E0880F991FFC01ED55FE4FAF
:1002D000A591B491FC01E757FE4F859194918FB79A
:1002E000F894EC91E22BEC938FBF0895CF92DF92BC
:1002F000EF92FF920F931F93CF93DF936C017A01DC
:100300008B01C0E0D0E0CE15DF0589F0D8016D91FA
:100310008D01D601ED91FC910190F081E02DC60197
:100320001995892B11F47E0102C02196ECCFC701EB
:10033000DF91CF911F910F91FF90EF90DF90CF90C1
:100340000895089580E090E00895FC01538D448D58
:10035000252F30E0842F90E0821B930B541710F070
:10036000CF96089501970895FC01918D828D98177D
:1003700061F0828DDF01A80FB11D5D968C91928D89
:100380009F5F9F73928F90E008958FEF9FEF089586
:10039000FC01918D828D981731F0828DE80FF11D4F
:1003A000858D90E008958FEF9FEF0895FC01918D6A
:1003B000228D892F90E0805C9F4F821B91098F7363
:1003C0009927089589E892E0F1DF21E0892B09F46B
:1003D00020E0822F0895FC01848DDF01A80FB11D5C
:1003E000A35ABF4F2C91848D90E001968F7399276B
:1003F000848FA689B7892C93A089B1898C91806458
:100400008C93938D848D981306C00288F389E02D18
:1004100080818F7D80830895EF92FF920F931F93C9
:10042000CF93DF93EC0181E0888F9B8D8C8D9813A7
:1004300005C0E889F989808185FD23C0F62E0B8DE2
:1004400010E00F5F1F4F0F731127E02E8C8DE81205
:100450000BC00FB607FCFACFE889F989808185FFC8
:10046000F5CFCE01B8DFF2CF8B8DFE01E80FF11D85
:10047000E35AFF4FF0820B8FEA89FB89808180620B
:1004800007C0EE89FF896083E889F98980818064EB
:10049000808381E090E0DF91CF911F910F91FF90D9
:1004A000EF900895CF93DF93EC01888D8823C1F0FE
:1004B000EA89FB89808185FD05C0A889B9898C916D
:1004C00086FD0EC00FB607FCF5CF808185FFF2CF09
:1004D000A889B9898C9185FFEDCFCE017CDFE8CF6B
:1004E000DF91CF91089580E090E0892B19F06ADFC9
:1004F000811125C080E090E0892B41F080E090E000
:10050000892B21F00E94000081111CC080E090E046
:10051000892B41F080E090E0892B21F00E940000BF
:10052000811113C080E090E0892BA1F080E090E081
:10053000892B81F00E94000081110AC008950E9459
:100540000000D8CF0E940000E1CF0E940000EACF57
:100550000C9400000895362F90E0FC01ED5BFE4FF7
:100560004491FC01ED5FFD4F2491FC01E354FE4FEB
:100570009491992309F46BC0442309F455C050E0C9
:10058000FA013197E231F10508F04EC08827EE58A4
:10059000FF4F8F4F0C94AE0C809180008F7707C077
:1005A000809180008F7D03C080918000877F809341
:1005B00080003AC084B58F7702C084B58F7D84BD3A
:1005C00033C08091B0008F7703C08091B0008F7DE1
:1005D0008093B00029C0809190008F7707C08091F0
:1005E00090008F7D03C080919000877F8093900062
:1005F0001BC08091A0008F7707C08091A0008F7DE5
:1006000003C08091A000877F8093A0000DC08091DF
:1006100020018F7707C0809120018F7D03C08091DA
:100620002001877F80932001E92FF0E0EE0FFF1F6C
:10063000E757FE4FA591B4918FB7F894EC91311123
:1006400003C020952E2301C02E2B2C938FBF08951D
:100650003FB7F8948091450290914602A0914702DD
:10066000B091480226B5A89B05C02F3F19F001960E
:10067000A11DB11D3FBFBA2FA92F982F8827820F28
:10068000911DA11DB11DBC01CD0142E0660F771F78
:10069000881F991F4A95D1F708958F929F92AF9224
:1006A000BF92CF92DF92EF92FF92D2DF4B015C01BB
:1006B0008AE0C82ED12CE12CF12CCADFDC01CB0161
:1006C00088199909AA09BB09883E9340A105B1057B
:1006D00058F021E0C21AD108E108F10888EE880E2E
:1006E00083E0981EA11CB11CC114D104E104F104E3
:1006F00021F7FF90EF90DF90CF90BF90AF909F9049
:100700008F900895CF92DF92EF92FF920F931F93F5
:10071000CF93DF936C018B017A01EC01C45CDD4F58
:10072000888187FF04C0FB011182108224C08CE005
:100730008C9D90018D9D300D11248881A901480F59
:10074000511D87FD5A958091B60390E048175907CF
:1007500094F48881A901480F511D87FD5A95CA015B
:10076000FA01EE0FFF1F8E0F9F1FFC01EA5DFC4F89
:10077000808186FD19C088818F5F88838CE08C9D85
:1007800090018D9D300D11248881A901480F511DC4
:1007900087FD5A958091B60390E048175907B4F445
:1007A00088818C303CF112C08881280F311D87FD73
:1007B0003A95F901EE0FFF1F2E0F3F1FF901EA5D79
:1007C000FC4F808160E08F73C6DED5CFF801808159
:1007D0009181049680349C4918F480E49CE904C01B
:1007E000F801808191810496F701918380838FEFD6
:1007F000888344C0F801408151818881B901680F24
:10080000711D87FD7A95CB01FB01EE0FFF1F8E0F47
:100810009F1FFC01EA5DFC4F81819281840F951F2F
:10082000F701918380838881A901480F511D87FDBD
:100830005A95CA01FA01EE0FFF1F8E0F9F1FFC0190
:10084000EA5DFC4F808186FF19C08881280F311D29
:1008500087FD3A95F901EE0FFF1F2E0F3F1FF9019B
:10086000EA5DFC4F808161E08F73DF91CF911F9132
:100870000F91FF90EF90DF90CF906DCEDF91CF91F1
:100880001F910F91FF90EF90DF90CF900895CF923E
:10089000DF92EF92FF92CF93DF936B017C014111C6
:1008A00002C061E001C060E08EE355DE2AE037ED72
:1008B00043EA5BE3C701B601ACD76B017C01C0E042
:1008C000D0E0BE010D2E000C880B990B0ED6A701AF
:1008D000960105D687FF08C061E08DE33CDE60E04D
:1008E0008DE339DE2196EDCFDF91CF91FF90EF9030
:1008F000DF90CF900895CF92DF92EF92FF92CF9347
:10090000DF936B017C01411102C061E001C060E036
:1009100088E321DE2AE037ED43EA5BE3C701B60155
:1009200078D76B017C01C0E0D0E0BE010D2E000C39
:10093000880B990BDAD5A7019601D1D587FF08C09E
:1009400061E087E308DE60E087E305DE2196EDCF16
:10095000DF91CF91FF90EF90DF90CF9008952F928D
:100960003F924F925F926F927F928F929F92AF923F
:10097000BF92CF92DF92EF92FF920F931F93CF938C
:10098000DF932B013C0169017A0160E070E0CB014B
:10099000ACD5A3019201D8D6A4D7D62FC72FA701D3
:1009A000960160E070E0CB01CFD69BD72C2E221CA5
:1009B0002224221C372E331C3324331C0D2F1C2FD2
:1009C00017FF03C0119501951109EB0177FF03C0D3
:1009D000D195C195D109C017D10744F57801F59497
:1009E000E794C12CD12C2801012E000C6608770851
:1009F0004E010D2E000CAA08BB08C301B20175D52B
:100A0000422D79DFEC0EFD1EE016F1063CF0E01AF7
:100A1000F10AC501B40169D5432D39DF3EDE8FEF00
:100A2000C81AD80AC016D10644F328C07E01F5942E
:100A3000E794C12CD12C2E010D2E000C66087708EE
:100A40004801012E000CAA08BB08CC16DD06B1F047
:100A5000C301B2014AD5432D1ADFE00EF11EEC1698
:100A6000FD063CF0EC1AFD0AC501B4013ED5422D4D
:100A700042DF13DE8FEFC81AD80AE7CFDF91CF919C
:100A80001F910F91FF90EF90DF90CF90BF90AF90AC
:100A90009F908F907F906F905F904F903F902F909E
:100AA000089564D71F920F920FB60F9211240BB6C0
:100AB0000F922F933F934F935F936F937F938F93F7
:100AC0009F93AF93BF93EF93FF9389E892E083DC0A
:100AD000FF91EF91BF91AF919F918F917F916F9116
:100AE0005F914F913F912F910F900BBE0F900FBED2
:100AF0000F901F9018951F920F920FB60F9211240E
:100B00000BB60F922F938F939F93EF93FF93E091E8
:100B10009902F0919A028081E0919F02F091A002E7
:100B200082FD12C090818091A2028F5F8F7320910D
:100B3000A302821751F0E091A202F0E0E757FD4FC7
:100B4000958F8093A20201C08081FF91EF919F91C8
:100B50008F912F910F900BBE0F900FBE0F901F9093
:100B600018951F920F920FB60F9211242F933F9357
:100B70008F939F93AF93BF938091410290914202D4
:100B8000A0914302B09144023091400223E0230F30
:100B90002D3720F40196A11DB11D05C026E8230FB5
:100BA0000296A11DB11D20934002809341029093B3
:100BB0004202A0934302B093440280914502909177
:100BC0004602A0914702B09148020196A11DB11DB5
:100BD0008093450290934602A0934702B093480247
:100BE000BF91AF919F918F913F912F910F900FBE29
:100BF0000F901F9018951F920F920FB60F9211240D
:100C00000BB60F922F933F934F935F936F937F9306
:100C10008F939F93AF93BF93EF93FF9348E251E07D
:100C200064E271E080E090E06DDDFF91EF91BF91B3
:100C3000AF919F918F917F916F915F914F913F9174
:100C40002F910F900BBE0F900FBE0F901F90189515
:100C50001F920F920FB60F9211240BB60F922F9383
:100C60003F934F935F936F937F938F939F93AF9334
:100C7000BF93EF93FF9348EA50E064EA70E083E0AB
:100C800090E040DDFF91EF91BF91AF919F918F91E7
:100C90007F916F915F914F913F912F910F900BBE7C
:100CA0000F900FBE0F901F9018951F920F920FB6C6
:100CB0000F9211240BB60F922F933F934F935F9394
:100CC0006F937F938F939F93AF93BF93EF93FF9314
:100CD00048E950E064E970E082E090E013DDFF91C4
:100CE000EF91BF91AF919F918F917F916F915F91A4
:100CF0004F913F912F910F900BBE0F900FBE0F9011
:100D00001F9018951F920F920FB60F9211240BB6D9
:100D10000F922F933F934F935F936F937F938F9394
:100D20009F93AF93BF93EF93FF9348E850E064E83D
:100D300070E081E090E0E6DCFF91EF91BF91AF9130
:100D40009F918F917F916F915F914F913F912F91E3
:100D50000F900BBE0F900FBE0F901F901895109222
:100D60008C0210928B0288EE93E0A0E0B0E08093BA
:100D70008D0290938E02A0938F02B093900283E134
:100D800092E090938A028093890285EC90E09093A0
:100D900096028093950284EC90E090939802809361
:100DA000970280EC90E090939A028093990281ECF4
:100DB00090E090939C0280939B0282EC90E0909351
:100DC0009E0280939D0286EC90E09093A002809317
:100DD0009F021092A2021092A3021092A4021092FB
:100DE000A5028091B6038033A0F491E0980F909310
:100DF000B6038093B70390E0FC01EE0FFF1F8E0F48
:100E00009F1FFC01EA5DFC4F88EB9BE0928381838E
:100E100008958FEF8093B7030895CF93DF93CDB7F5
:100E2000DEB7CF54D1090FB6F894DEBF0FBECDBFE9
:100E3000789484B5826084BD84B5816084BD85B5B5
:100E4000826085BD85B5816085BD80916E008160C1
:100E500080936E0010928100809181008260809367
:100E60008100809181008160809381008091800069
:100E70008160809380008091B10084608093B10094
:100E80008091B00081608093B00080919100826079
:100E90008093910080919100816080939100809176
:100EA00090008160809390008091A1008260809387
:100EB000A1008091A10081608093A1008091A00099
:100EC00081608093A0008091210182608093210144
:100ED00080912101816080932101809120018160B6
:100EE0008093200180917A00846080937A008091C1
:100EF0007A00826080937A0080917A00816080938A
:100F00007A0080917A00806880937A001092C10004
:100F1000E0919902F0919A0282E08083E09195023B
:100F2000F09196021082E0919702F09198028FEC76
:100F300080831092A102E0919D02F0919E0286E0D2
:100F40008083E0919B02F0919C028081806180838C
:100F5000E0919B02F0919C02808188608083E09107
:100F60009B02F0919C02808180688083E0919B02CB
:100F7000F0919C0280818F7D808387E398D988E3FC
:100F800096D986E294D98DE392D98EE390D989E3FC
:100F90008ED98091B703803308F04FC089E087D99C
:100FA0008091B703E82FF0E09F01220F331FE20F7B
:100FB000F31FEA5DFC4F9081907C996090831092C2
:100FC000B8031092B9036CE0BDD49CE0899FB001D6
:100FD000112440E050E09A01260F371FF901EE0F6F
:100FE000FF1F2E0F3F1FF901EA5DFC4F908196FD18
:100FF00017C04F5F5F4F4C30510569F7813009F0E2
:10100000B9C01092800082E0809381001092850028
:1010100010928400B19A80916F00826080936F007B
:10102000E091B703F0E0CF01880F991FE80FF91F97
:10103000EA5DFC4F80818064808361E086E28BDA28
:1010400061E089E388DA8EE0F82E8E010F5B1F4F96
:10105000E0E0F2E0D8018F2D01900D928A95E1F742
:1010600060961FAE609789E892E0A0D9892B09F4B9
:101070007FC0009349020A30110509F079C08091C0
:101080000A00873409F066C080910C00882331F093
:10109000813009F06DC0ACE0B0E02AC0ACE0B0E057
:1010A000FD01E01BF10B8D918835D1F78981E00FAF
:1010B000F11F6F01C01AD10A9191903211F0808115
:1010C000F8CF8983CE01019681D04B015C01D80114
:1010D000AC0DBD1DFD01E01BF10B8D918935D1F7E4
:1010E0008981E00FF11F9191903251F18081FBCF06
:1010F000FD01E01BF10B8D918835D1F78981E00F5F
:10110000F11F6F01C01AD10A9191903211F08081C4
:10111000F8CF8983CE01019659D04B015C01D801EB
:10112000AC0DBD1DFD01E01BF10B8D918935D1F793
:101130008981E00FF11F9191903211F08081FBCFF6
:101140008983CE01019642D09B01AC01C501B40157
:1011500006DC0EC047E150E061E272E089E892E00F
:10116000C5D842E050E069E372E089E892E0BED879
:10117000BAD96ECF823061F41092900080939100C2
:10118000109295001092940088BB8093710048CF14
:10119000833069F41092A00082E08093A100109245
:1011A000A5001092A40089BB8093720039CF8111F1
:1011B00037CF1092200182E0809321011092250107
:1011C000109224018ABB809373002ACF6627772769
:1011D00000C06F927F928F929F92AF92BF92CF92F8
:1011E000DF92EF92FF920F931F93CF93DF93EC0167
:1011F0007B016115710519F0DB018D939C938E01C4
:101200000F5F1F4F7880872D90E049D1892B11F017
:10121000E801F5CFBDE27B1205C00F5F1F4F79805B
:10122000C1E008C0EBE27E1204C08E010E5F1F4FCA
:101230007980C0E06801F1E0CF1AD10843E050E0C6
:1012400060E171E0C60133D1892BE9F4680122E045
:10125000C20ED11C45E050E06BE071E0C60127D121
:10126000892B21F4680187E0C80ED11CE114F10438
:1012700019F0D701CD92DC92C111F9C060E070E0A5
:1012800080E89FE7FDC043E050E068E071E0C60100
:101290000ED1892B51F4E114F10409F4EDC00E5F75
:1012A0001F4FF70111830083E7C0680160E070E021
:1012B000CB0100E010E0F601D0EDD70DDA3050F5AB
:1012C0002C2F2260622E2C2F2870C2FF05C0211106
:1012D00027C00F5F1F4F24C0222311F001501109B6
:1012E000A5E0B0E09B01AC0116D24B015C01880C7B
:1012F000991CAA1CBB1CC501B4016D0F711D811D79
:10130000911D6839A9E97A078A07A9E19A0740F08F
:10131000C66005C0DE3F51F4C3FD44C0C8606C2EFA
:10132000BFEFCB1ADB0A7080C62DC5CF2D2F2F7DC6
:101330002531C1F540814D3211F4C06106C04B32F8
:1013400021F0319621E030E006C03296D6011196A8
:101350004C9122E030E0A0EDA40FAA3018F0E21B7F
:10136000F30B20C040E050E04038BCE05B075CF489
:101370009A01220F331F220F331F420F531F440FB6
:10138000551F4A0F511D3196DF0111972C91A0ED89
:10139000A20FAA3048F3C4FF03C0519541955109EB
:1013A000040F151FC1FF07C0E114F10421F03197AC
:1013B000D701ED93FC9397D0C370C33019F06B0144
:1013C0007C0106C06B017C01F7FAF094F7F8F09409
:1013D00020E030E0A901C701B60181D0882309F4DB
:1013E00043C017FF06C0119501951109C7E2D1E06E
:1013F00002C0CFE3D1E05E01B8E1AB1AB10846010B
:10140000BE2DAF2D90E2E92EF12C0E151F057CF0BC
:10141000FE012591359145915491B4018B2F9A2F5E
:10142000C3D04B01B82FA92F0E191F09EECF249757
:10143000F594E794CA15DB0541F76401EB2EFA2E0B
:101440008E2D880F8F2D881F8F3F41F020E030E0D8
:10145000A901C701B60143D0811106C082E290E024
:101460009093BB038093BA03C701B60109C060E043
:1014700070E080E89FEF04C060E070E080EC9FE7E0
:10148000DF91CF911F910F91FF90EF90DF90CF9060
:10149000BF90AF909F908F907F906F900895911123
:1014A000E6C0803219F089508550D0F70895FB01CD
:1014B000DC014150504088F08D9181341CF08B3517
:1014C0000CF4805E659161341CF06B350CF4605E49
:1014D000861B611171F3990B0895881BFCCF40D0D6
:1014E00008F481E00895E89409C097FB3EF49095D4
:1014F0008095709561957F4F8F4F9F4F9923A9F0ED
:10150000F92F96E9BB279395F6958795779567957B
:10151000B795F111F8CFFAF4BB0F11F460FF1BC0BF
:101520006F5F7F4F8F4F9F4F16C0882311F096E952
:1015300011C0772321F09EE8872F762F05C0662300
:1015400071F096E8862F70E060E02AF09A95660FB9
:10155000771F881FDAF7880F9695879597F9089572
:10156000990F0008550FAA0BE0E8FEEF16161706B4
:10157000E807F907C0F012161306E407F50798F01C
:10158000621B730B840B950B39F40A2661F0232B35
:10159000242B252B21F408950A2609F4A140A695B1
:1015A0008FEF811D811D08950BD07BC06CD028F07A
:1015B00071D018F0952309F05DC062C01124A5C058
:1015C00081D0A0F3959FD1F3950F50E0551F629FF6
:1015D000F001729FBB27F00DB11D639FAA27F00D8C
:1015E000B11DAA1F649F6627B00DA11D661F829FB3
:1015F0002227B00DA11D621F739FB00DA11D621F98
:10160000839FA00D611D221F749F3327A00D611DB4
:10161000231F849F600D211D822F762F6A2F112496
:101620009F5750408AF0E1F088234AF0EE0FFF1FE9
:10163000BB1F661F771F881F91505040A9F79E3F20
:10164000510570F017C061C05F3FECF3983EDCF3CA
:10165000869577956795B795F795E7959F5FC1F75D
:10166000FE2B880F911D9695879597F908959927D8
:101670008827089597F99F6780E870E060E00895F3
:101680009FEF80EC089500240A941616170618069A
:101690000906089500240A94121613061406050676
:1016A0000895092E0394000C11F4882352F0BB0F07
:1016B00040F4BF2B11F460FF04C06F5F7F4F8F4F6A
:1016C0009F4F089557FD9058440F551F59F05F3FA5
:1016D00071F04795880F97FB991F61F09F3F79F054
:1016E00087950895121613061406551FF2CF4695D6
:1016F000F1DF08C0161617061806991FF1CF869558
:101700007105610508940895E894BB27662777273B
:10171000CB0197F9089509D0A59F900DB49F900D26
:10172000A49F800D911D11240895A29FB001B39F25
:10173000C001A39F700D811D1124911DB29F700DDA
:10174000811D1124911D08955058BB27AA270ED042
:10175000A8CF99DF30F09EDF20F031F49F3F11F4E5
:101760001EF48ECF0EF4E095E7FB84CFE92FAADFBD
:1017700080F3BA17620773078407950718F071F4AE
:101780009EF5C2CF0EF4E0950B2EBA2FA02D0B01C3
:10179000B90190010C01CA01A0011124FF27591BB6
:1017A00099F0593F50F4503E68F11A16F040A22FBC
:1017B000232F342F4427585FF3CF4695379527952D
:1017C000A795F0405395C9F77EF41F16BA0B620B2C
:1017D000730B840BBAF09150A1F0FF0FBB1F661F73
:1017E000771F881FC2F70EC0BA0F621F731F841FB6
:1017F00048F4879577956795B795F7959E3F08F0DC
:10180000B3CF9395880F08F09927EE0F979587959A
:1018100008950CD046CF3EDF40F035DF30F021F4A4
:101820005F3F19F027CF511170CF2ACF4BDF98F3CC
:101830009923C9F35523B1F3951B550BBB27AA2751
:1018400062177307840738F09F5F5F4F220F331FC3
:10185000441FAA1FA9F333D00E2E3AF0E0E830D08F
:1018600091505040E695001CCAF729D0FE2F27D092
:10187000660F771F881FBB1F261737074807AB0760
:10188000B0E809F0BB0B802DBF01FF2793585F4FD5
:101890002AF09E3F510568F0EDCE37CF5F3FECF365
:1018A000983EDCF3869577956795B795F7959F5F9A
:1018B000C9F7880F911D9695879597F90895E1E0EE
:1018C000660F771F881FBB1F621773078407BA074D
:1018D00020F0621B730B840BBA0BEE1F88F7E095A8
:1018E000089504D06894B11110CF0895F3DE88F004
:1018F0009F5790F0B92F9927B751A0F0D1F0660FFC
:10190000771F881F991F1AF0BA95C9F712C0B13016
:1019100081F0FADEB1E00895F7CE672F782F88279F
:10192000B85F39F0B93FCCF3869577956795B39555
:10193000D9F73EF490958095709561957F4F8F4FC4
:101940009F4F0895991B79E004C0991F961708F0DE
:10195000961B881F7A95C9F780950895EE0FFF1F93
:10196000881F8BBF0790F691E02D199481E090E0DD
:08197000F89400C0F894FFCFC9
:101978004730312058312E352059312E350000009E
:101988000000000C027601A5015202D601B401C87C
:1019980001436F6D6D616E64206E6F742073757096
:0C19A800706F727465642021000D0A004D
:00000001FF
